:100000000C942A000C943F000C943F000C943F0089
:100010000C943F000C943F000C943F000C943F0064
:100020000C943F000C943F000C943F000C943F0054
:100030000C943F000C943F000C943F000C943F0044
:100040000C943F000C943F000C943F000C943F0034
:100050000C943F0011241FBECFE5D8E0DEBFCDBF1A
:1000600011E0A0E6B0E0E4E6FBE002C005900D92EE
:10007000AC30B107D9F70E947C050C94B0050C9404
:10008000000087FD02C0880F82B9089809988CE0AB
:1000900080B986B7806486BF86B7846086BF0895BE
:1000A00086B7806286BF86B7806886BF06B607FEC1
:1000B000FDCF81B1887F8830E1F7089586B78062EF
:1000C00086BF86B7806886BF06B607FEFDCF81B1C2
:1000D000887F8031E1F7089586B7806186BF86B753
:1000E000806886BF089587FD10C0880F83B918986F
:1000F00086B78F7D86BF86B7806886BF06B607FE47
:10010000FDCF81B1887F8831E1F7089587FD10C068
:10011000880F83B9189A86B78F7D86BF86B78068A7
:1001200086BF06B607FEFDCF81B1887F8034E1F738
:10013000089583B986B7806886BF06B607FEFDCFEF
:1001400081B1887F8832E1F7089586B7806886BFDD
:1001500006B607FEFDCF83B1089586B7806486BFDB
:10016000089586B78F7B86BF0895A82FA695A6957C
:10017000A695482F4770913041F09130D0F09230E1
:1001800061F1933009F056C042C0EA2FF0E0EE0F63
:10019000FF1FE556FF4F0190F081E02D208181E0A7
:1001A00090E002C0880F991F4A95E2F7809582235C
:1001B0002CC0B0E0AA0FBB1FFD01E556FF4F019018
:1001C000F081E02D908121E030E001C0220F4A95BE
:1001D000EAF7822F8095892311C0B0E0AA0FBB1FD8
:1001E000FD01E556FF4F0190F081E02D808121E077
:1001F00030E001C0220F4A95EAF7822B8083AD558B
:10020000BF4FED91FC918081822B80830895EA2F6E
:10021000F0E0EE0FFF1FE556FF4F0190F081E02D5B
:10022000208181E090E002C0880F991F4A95E2F793
:10023000282B20830895CF93DF93C0E0D0E0FE0108
:10024000EE0FFF1FE554FF4F808191810E94B500A2
:100250002196C032D10599F7DF91CF910895A82F4B
:10026000A695A695A695482F4770613041F061305C
:10027000D0F0623061F1633009F056C042C0EA2F1D
:10028000F0E0EE0FFF1FE556FF4F0190F081E02DEB
:10029000208181E090E002C0880F991F4A95E2F723
:1002A000809582232CC0B0E0AA0FBB1FFD01E5564C
:1002B000FF4F0190F081E02D908121E030E001C0FE
:1002C000220F4A95EAF7822F8095892311C0B0E06A
:1002D000AA0FBB1FFD01E556FF4F0190F081E02DF5
:1002E000808121E030E001C0220F4A95EAF7822B9D
:1002F0008083AD55BF4FED91FC918081822B80832F
:100300000895EA2FF0E0EE0FFF1FE556FF4F019032
:10031000F081E02D208181E090E002C0880F991FDC
:100320004A95E2F7282B20830895382F3770869559
:1003300086958695E82FF0E0613091F4EE0FFF1F6F
:10034000ED55FF4F0190F081E02D208181E090E09C
:1003500002C0880F991F3A95E2F7282B2083089551
:10036000EE0FFF1FED55FF4F0190F081E02D208132
:1003700081E090E002C0880F991F3A95E2F78095DE
:10038000822380830895DB01E82FE695E695E695C4
:10039000F0E0EE0FFF1FE555FF4F0190F081E02DDB
:1003A000208130E0877002C0359527958A95E2F765
:1003B00021702C930895FB01813049F0813028F0A1
:1003C000823039F0833051F407C08BB303C088B357
:1003D00001C085B38083089582B3808308958130FE
:1003E00049F0813028F0823039F0833041F406C082
:1003F0006BBB089568BB089565BB089562BB089503
:10040000E82FF0E0662351F4EE0FFF1FE556FF4F93
:100410000190F081E02D8FEF80830895EE0FFF1F94
:10042000E556FF4F0190F081E02D108208951F9353
:10043000182F682F617088E00E949501612F6695E2
:10044000617089E00E94950116951695612F617083
:100450008AE00E949501169511708CE0612F0E9430
:1004600095011F910895FF920F931F93F82E83E03B
:1004700061E00E9495018F2D82958F700E94170276
:1004800082E061E00E94950100EA1FE0C801019747
:10049000F1F782E060E00E949501C8010197F1F751
:1004A0008F2D0E94170282E061E00E949501C80131
:1004B0000197F1F782E060E00E949501C801019781
:1004C000F1F71F910F91FF900895AF92BF92CF92D5
:1004D000DF92EF92FF920F931F93DF93CF93CDB7ED
:1004E000DEB72C970FB6F894DEBF0FBECDBF6B0101
:1004F0007C01611571058105910509F443C010E087
:100500005E010894A11CB11CC501810F911D9C873F
:100510008B87C701B6012AE030E040E050E00E943E
:100520008E05EB85FC856083C701B6012AE030E0CB
:1005300040E050E00E948E05C901DA016C017D01A6
:100540001F5FC114D104E104F104F1F6012F015041
:10055000E02EFF24E7FCF094EA0CFB1C80EAC82E96
:100560008FE0D82E0CC0F7018081805D0E9433029D
:10057000C6010197F1F701500894E108F10807FF5F
:10058000F2CF03C080E30E9433022C960FB6F8949A
:10059000DEBF0FBECDBFCF91DF911F910F91FF90B6
:1005A000EF90DF90CF90BF90AF900895EF92FF92C1
:1005B0001F93CF93DF93EC0110E090EAE92E9FE0C8
:1005C000F92E06C00E943302C7010197F1F71F5FA1
:1005D000FE01E10FF11D80818823A1F7DF91CF910A
:1005E0001F91FF90EF900895FF920F931F93F82EA5
:1005F00083E060E00E9495018F2D82958F700E94AC
:10060000170282E061E00E94950100EA1FE0C80144
:100610000197F1F782E060E00E949501C80101971F
:10062000F1F78F2D0E94170282E061E00E94950190
:10063000C8010197F1F782E060E00E949501C801CE
:100640000197F1F71F910F91FF900895813029F4E0
:100650006031D8F4862F80580DC0823029F4603183
:10066000A0F4862F805406C0833039F4603168F4DA
:10067000862F8C560E94F4020895843031F4603144
:1006800020F4862F8C520E94F4020895882311F4DE
:1006900080E101C084E10E94F40280EA9FE00197BA
:1006A000F1F7089581E00E94F40208951F9383E01A
:1006B00063E00E942F0182E063E00E942F0188E046
:1006C00063E00E942F0189E063E00E942F018AE02D
:1006D00063E00E942F018CE063E00E942F018EE511
:1006E00091E020E931E0F9013197F1F70197D9F76D
:1006F00083E060E00E94950182E00E94170282E0A0
:1007000061E00E94950180EA9FE00197F1F782E0A5
:1007100060E00E94950188E20E94F40210EF812FB0
:100720008A95F1F78FE00E94F4021A95F1F781E0C3
:100730000E94F40280E49FE10197F1F786E00E94B5
:10074000F4021F9108954F925F927F928F929F9231
:10075000AF92BF92CF92DF92EF92FF920F931F93CF
:10076000DF93CF930F92CDB7DEB737EBA32E30E0F8
:10077000B32E77247A94CC24DD244E010894811C76
:10078000911C20EA422E2FE0522EF501808160E07C
:100790000E94950193EBE92E90E0F92E8601000F5F
:1007A000111F000F111F05501F4FF7018081B40169
:1007B0000E94C3018981882371F4F801708005C00B
:1007C000F7018081B4010E94C30189818823C1F3AC
:1007D000C2010197F1F70894E11CF11C0F5F1F4F54
:1007E000F7EBEF16F0E0FF0601F7F50181915F01ED
:1007F00061E00E9495010894C11CD11CF4E0CF1661
:10080000D10419F6872D0F90CF91DF911F910F9191
:10081000FF90EF90DF90CF90BF90AF909F908F9020
:100820007F905F904F9008958091B30061E00E94A7
:100830002F018091B40061E00E942F018091B500EA
:1008400061E00E942F018091B60061E00E942F01BB
:100850008091B70062E00E942F018091B80062E0B1
:100860000E942F018091B90062E00E942F018091C7
:10087000BA0062E00E942F010895DF92EF92FF928A
:100880000F931F93CF93DF938C01F62EE72ED42E78
:100890000E945000812F80650E947300802F0E946B
:1008A00099002F2D3E2DC901EC0110E004C0899163
:1008B0000E9499001F5F1D15D0F30E946C0080E418
:1008C0009CE90197F1F7DF91CF911F910F91FF9074
:1008D000EF90DF90089593E0899FC0011124039762
:1008E00043E00E943D0408950F931F938C0110650F
:1008F0000E945000812F0E947300802F0E94990057
:100900000E945E00812F0E9486000E94A500182F81
:100910000E946C0080E09DE70197F1F7812F1F9105
:100920000F910895FF920F931F93182F092FF62E02
:100930000E945000802F80650E947300812F0E94CA
:1009400099008F2D0E9499000E946C0080E09DE725
:100950000197F1F71F910F91FF900895DF92EF92A9
:10096000FF920F931F93CF93DF93082FF62EE72E5E
:10097000D42E192F10650E945000812F0E94730001
:10098000802F0E9499000E945E00812F0E948600A5
:100990002F2D3E2DC901EC01FF240D2D10E001503B
:1009A00010400BC08F2D90E08017910711F40E942A
:1009B000B1000E94A5008993F394FD1498F300E41C
:1009C0001CE9C8010197F1F70E946C00C80101976A
:1009D000F1F70E94AD00DF91CF911F910F91FF9031
:1009E000EF90DF9008958F929F92BF92CF92DF9207
:1009F000EF92FF920F931F93DF93CF9300D000D01D
:100A0000CDB7DEB76C01B62E00E010E0EE24FF2477
:100A10004E010894811C911C1AC0C701B40143E027
:100A20000E94AE04F60190818981981759F41F5FE6
:100A300091818A81981731F41F5F92818B81981779
:100A400009F41F5F0F5F84E090E0E80EF91E0B15BC
:100A500020F3133011F06AEF01C06B2D862F0F9039
:100A60000F900F900F90CF91DF911F910F91FF90FA
:100A7000EF90DF90CF90BF909F908F9008958FEF71
:100A80000E94410008950E94520380E690E00E9477
:100A9000D60282E060E00E9426038DE690E00E948C
:100AA000D60283E060E00E94260387E790E00E9480
:100AB000D60208950E9452038EE790E00E94D6026B
:100AC00082E060E00E94260385E890E00E94D60262
:100AD00083E060E00E9426038CE890E00E94D6024A
:100AE00084E060E00E94260384E990E00E94D60240
:100AF00008950E9456030895CF93DF930E947905CD
:100B0000C0E9D1E00E945A0580ED97E0FE013197DF
:100B1000F1F70197D9F70E944305F4CFA1E21A2E0D
:100B2000AA1BBB1BFD010DC0AA1FBB1FEE1FFF1F91
:100B3000A217B307E407F50720F0A21BB30BE40BE1
:100B4000F50B661F771F881F991F1A9469F7609528
:100B50007095809590959B01AC01BD01CF010895E2
:040B6000F894FFCF37
:100B6400352D4175746F204C6967687400362D4CBF
:100B74006F67204F757400372D4261636B00312D10
:100B840054656D7000322D446F6F7200332D4C69C3
:100B940067687400342D4D6F7265003A0037003475
:100BA4000031003B00380035003200390036003394
:100BB4000030001F1E1D1B15141312000101010239
:100BC4000203020403050106010701080309030ADD
:100BD400030B010C030D020E020F0110011101128F
:100BE4000113011401150116011701180119011A45
:100BF400011B011C011D011E011F013132332D3463
:0C0C040035362B3738392A3D30632F007D
:00000001FF
